{
  "contractName": "AtomicSwap",
  "abi": [
    {
      "constant": true,
      "inputs": [
        {
          "name": "",
          "type": "bytes20"
        }
      ],
      "name": "swaps",
      "outputs": [
        {
          "name": "initTimestamp",
          "type": "uint256"
        },
        {
          "name": "refundTime",
          "type": "uint256"
        },
        {
          "name": "hashedSecret",
          "type": "bytes20"
        },
        {
          "name": "secret",
          "type": "bytes32"
        },
        {
          "name": "initiator",
          "type": "address"
        },
        {
          "name": "participant",
          "type": "address"
        },
        {
          "name": "value",
          "type": "uint256"
        },
        {
          "name": "emptied",
          "type": "bool"
        },
        {
          "name": "state",
          "type": "uint8"
        }
      ],
      "payable": false,
      "stateMutability": "view",
      "type": "function"
    },
    {
      "inputs": [],
      "payable": false,
      "stateMutability": "nonpayable",
      "type": "constructor"
    },
    {
      "anonymous": false,
      "inputs": [
        {
          "indexed": false,
          "name": "_refundTime",
          "type": "uint256"
        }
      ],
      "name": "Refunded",
      "type": "event"
    },
    {
      "anonymous": false,
      "inputs": [
        {
          "indexed": false,
          "name": "_redeemTime",
          "type": "uint256"
        }
      ],
      "name": "Redeemed",
      "type": "event"
    },
    {
      "anonymous": false,
      "inputs": [
        {
          "indexed": false,
          "name": "_initiator",
          "type": "address"
        },
        {
          "indexed": false,
          "name": "_participator",
          "type": "address"
        },
        {
          "indexed": false,
          "name": "_hashedSecret",
          "type": "bytes20"
        },
        {
          "indexed": false,
          "name": "_value",
          "type": "uint256"
        }
      ],
      "name": "Participated",
      "type": "event"
    },
    {
      "anonymous": false,
      "inputs": [
        {
          "indexed": false,
          "name": "_initTimestamp",
          "type": "uint256"
        },
        {
          "indexed": false,
          "name": "_refundTime",
          "type": "uint256"
        },
        {
          "indexed": false,
          "name": "_hashedSecret",
          "type": "bytes20"
        },
        {
          "indexed": false,
          "name": "_participant",
          "type": "address"
        },
        {
          "indexed": false,
          "name": "_initiator",
          "type": "address"
        },
        {
          "indexed": false,
          "name": "_funds",
          "type": "uint256"
        }
      ],
      "name": "Initiated",
      "type": "event"
    },
    {
      "constant": false,
      "inputs": [
        {
          "name": "_refundTime",
          "type": "uint256"
        },
        {
          "name": "_hashedSecret",
          "type": "bytes20"
        },
        {
          "name": "_participant",
          "type": "address"
        }
      ],
      "name": "initiate",
      "outputs": [],
      "payable": true,
      "stateMutability": "payable",
      "type": "function"
    },
    {
      "constant": false,
      "inputs": [
        {
          "name": "_refundTime",
          "type": "uint256"
        },
        {
          "name": "_hashedSecret",
          "type": "bytes20"
        },
        {
          "name": "_initiator",
          "type": "address"
        }
      ],
      "name": "participate",
      "outputs": [],
      "payable": true,
      "stateMutability": "payable",
      "type": "function"
    },
    {
      "constant": false,
      "inputs": [
        {
          "name": "_secret",
          "type": "bytes32"
        },
        {
          "name": "_hashedSecret",
          "type": "bytes20"
        }
      ],
      "name": "redeem",
      "outputs": [],
      "payable": false,
      "stateMutability": "nonpayable",
      "type": "function"
    },
    {
      "constant": false,
      "inputs": [
        {
          "name": "_hashedSecret",
          "type": "bytes20"
        }
      ],
      "name": "refund",
      "outputs": [],
      "payable": false,
      "stateMutability": "nonpayable",
      "type": "function"
    }
  ],
  "bytecode": "0x608060405234801561001057600080fd5b506112f9806100206000396000f30060806040526004361061006d576000357c0100000000000000000000000000000000000000000000000000000000900463ffffffff16806327f10ee0146100725780635a8f9b81146100cb5780637ec27ba114610107578063eb8ae1ed14610151578063f325cc91146101aa575b600080fd5b6100c96004803603810190808035906020019092919080356bffffffffffffffffffffffff19169060200190929190803573ffffffffffffffffffffffffffffffffffffffff1690602001909291905050506102c2565b005b3480156100d757600080fd5b5061010560048036038101908080356bffffffffffffffffffffffff19169060200190929190505050610640565b005b34801561011357600080fd5b5061014f600480360381019080803560001916906020019092919080356bffffffffffffffffffffffff191690602001909291905050506109ea565b005b6101a86004803603810190808035906020019092919080356bffffffffffffffffffffffff19169060200190929190803573ffffffffffffffffffffffffffffffffffffffff169060200190929190505050610e4b565b005b3480156101b657600080fd5b506101e460048036038101908080356bffffffffffffffffffffffff1916906020019092919050505061120c565b604051808a8152602001898152602001886bffffffffffffffffffffffff19166bffffffffffffffffffffffff1916815260200187600019166000191681526020018673ffffffffffffffffffffffffffffffffffffffff1673ffffffffffffffffffffffffffffffffffffffff1681526020018573ffffffffffffffffffffffffffffffffffffffff1673ffffffffffffffffffffffffffffffffffffffff168152602001848152602001831515151581526020018260028111156102a657fe5b60ff168152602001995050505050505050505060405180910390f35b81600060028111156102d057fe5b600080836bffffffffffffffffffffffff19166bffffffffffffffffffffffff1916815260200190815260200160002060070160019054906101000a900460ff16600281111561031c57fe5b14151561032857600080fd5b83600080856bffffffffffffffffffffffff19166bffffffffffffffffffffffff191681526020019081526020016000206001018190555042600080856bffffffffffffffffffffffff19166bffffffffffffffffffffffff191681526020019081526020016000206000018190555033600080856bffffffffffffffffffffffff19166bffffffffffffffffffffffff1916815260200190815260200160002060050160006101000a81548173ffffffffffffffffffffffffffffffffffffffff021916908373ffffffffffffffffffffffffffffffffffffffff16021790555081600080856bffffffffffffffffffffffff19166bffffffffffffffffffffffff1916815260200190815260200160002060040160006101000a81548173ffffffffffffffffffffffffffffffffffffffff021916908373ffffffffffffffffffffffffffffffffffffffff16021790555034600080856bffffffffffffffffffffffff19166bffffffffffffffffffffffff191681526020019081526020016000206006018190555082600080856bffffffffffffffffffffffff19166bffffffffffffffffffffffff1916815260200190815260200160002060020160006101000a81548173ffffffffffffffffffffffffffffffffffffffff02191690836c01000000000000000000000000900402179055506002600080856bffffffffffffffffffffffff19166bffffffffffffffffffffffff1916815260200190815260200160002060070160016101000a81548160ff0219169083600281111561057057fe5b02179055507fd2ae53b489af667edae5247fc948af6bab36cb0ec684fb14cc114c95905f4f1982338534604051808573ffffffffffffffffffffffffffffffffffffffff1673ffffffffffffffffffffffffffffffffffffffff1681526020018473ffffffffffffffffffffffffffffffffffffffff1673ffffffffffffffffffffffffffffffffffffffff168152602001836bffffffffffffffffffffffff19166bffffffffffffffffffffffff1916815260200182815260200194505050505060405180910390a150505050565b80600080826bffffffffffffffffffffffff19166bffffffffffffffffffffffff1916815260200190815260200160002060010154600080836bffffffffffffffffffffffff19166bffffffffffffffffffffffff191681526020019081526020016000206000015401421115156106b757600080fd5b60001515600080836bffffffffffffffffffffffff19166bffffffffffffffffffffffff1916815260200190815260200160002060070160009054906101000a900460ff16151514151561070a57600080fd5b60028081111561071657fe5b600080846bffffffffffffffffffffffff19166bffffffffffffffffffffffff1916815260200190815260200160002060070160019054906101000a900460ff16600281111561076257fe5b141561083657600080836bffffffffffffffffffffffff19166bffffffffffffffffffffffff1916815260200190815260200160002060050160009054906101000a900473ffffffffffffffffffffffffffffffffffffffff1673ffffffffffffffffffffffffffffffffffffffff166108fc600080856bffffffffffffffffffffffff19166bffffffffffffffffffffffff19168152602001908152602001600020600601549081150290604051600060405180830381858888f19350505050158015610834573d6000803e3d6000fd5b505b6001600281111561084357fe5b600080846bffffffffffffffffffffffff19166bffffffffffffffffffffffff1916815260200190815260200160002060070160019054906101000a900460ff16600281111561088f57fe5b141561096357600080836bffffffffffffffffffffffff19166bffffffffffffffffffffffff1916815260200190815260200160002060040160009054906101000a900473ffffffffffffffffffffffffffffffffffffffff1673ffffffffffffffffffffffffffffffffffffffff166108fc600080856bffffffffffffffffffffffff19166bffffffffffffffffffffffff19168152602001908152602001600020600601549081150290604051600060405180830381858888f19350505050158015610961573d6000803e3d6000fd5b505b6001600080846bffffffffffffffffffffffff19166bffffffffffffffffffffffff1916815260200190815260200160002060070160006101000a81548160ff0219169083151502179055507f3d2a04f53164bedf9a8a46353305d6b2d2261410406df3b41f99ce6489dc003c426040518082815260200191505060405180910390a15050565b8082816bffffffffffffffffffffffff19166003826040518082600019166000191681526020019150506020604051808303816000865af1158015610a33573d6000803e3d6000fd5b505050604051516c01000000000000000000000000026bffffffffffffffffffffffff1916141515610a6457600080fd5b600080836bffffffffffffffffffffffff19166bffffffffffffffffffffffff1916815260200190815260200160002060010154600080846bffffffffffffffffffffffff19166bffffffffffffffffffffffff19168152602001908152602001600020600001540142101515610ada57600080fd5b60001515600080846bffffffffffffffffffffffff19166bffffffffffffffffffffffff1916815260200190815260200160002060070160009054906101000a900460ff161515141515610b2d57600080fd5b600280811115610b3957fe5b600080856bffffffffffffffffffffffff19166bffffffffffffffffffffffff1916815260200190815260200160002060070160019054906101000a900460ff166002811115610b8557fe5b1415610c5957600080846bffffffffffffffffffffffff19166bffffffffffffffffffffffff1916815260200190815260200160002060040160009054906101000a900473ffffffffffffffffffffffffffffffffffffffff1673ffffffffffffffffffffffffffffffffffffffff166108fc600080866bffffffffffffffffffffffff19166bffffffffffffffffffffffff19168152602001908152602001600020600601549081150290604051600060405180830381858888f19350505050158015610c57573d6000803e3d6000fd5b505b60016002811115610c6657fe5b600080856bffffffffffffffffffffffff19166bffffffffffffffffffffffff1916815260200190815260200160002060070160019054906101000a900460ff166002811115610cb257fe5b1415610d8657600080846bffffffffffffffffffffffff19166bffffffffffffffffffffffff1916815260200190815260200160002060050160009054906101000a900473ffffffffffffffffffffffffffffffffffffffff1673ffffffffffffffffffffffffffffffffffffffff166108fc600080866bffffffffffffffffffffffff19166bffffffffffffffffffffffff19168152602001908152602001600020600601549081150290604051600060405180830381858888f19350505050158015610d84573d6000803e3d6000fd5b505b6001600080856bffffffffffffffffffffffff19166bffffffffffffffffffffffff1916815260200190815260200160002060070160006101000a81548160ff0219169083151502179055507f82498456531a1065f689ba348ce20bda781238c424cf36748dd40bc282831e03426040518082815260200191505060405180910390a183600080856bffffffffffffffffffffffff19166bffffffffffffffffffffffff19168152602001908152602001600020600301816000191690555050505050565b8160006002811115610e5957fe5b600080836bffffffffffffffffffffffff19166bffffffffffffffffffffffff1916815260200190815260200160002060070160019054906101000a900460ff166002811115610ea557fe5b141515610eb157600080fd5b83600080856bffffffffffffffffffffffff19166bffffffffffffffffffffffff191681526020019081526020016000206001018190555042600080856bffffffffffffffffffffffff19166bffffffffffffffffffffffff191681526020019081526020016000206000018190555082600080856bffffffffffffffffffffffff19166bffffffffffffffffffffffff1916815260200190815260200160002060020160006101000a81548173ffffffffffffffffffffffffffffffffffffffff02191690836c010000000000000000000000009004021790555081600080856bffffffffffffffffffffffff19166bffffffffffffffffffffffff1916815260200190815260200160002060050160006101000a81548173ffffffffffffffffffffffffffffffffffffffff021916908373ffffffffffffffffffffffffffffffffffffffff16021790555033600080856bffffffffffffffffffffffff19166bffffffffffffffffffffffff1916815260200190815260200160002060040160006101000a81548173ffffffffffffffffffffffffffffffffffffffff021916908373ffffffffffffffffffffffffffffffffffffffff1602179055506001600080856bffffffffffffffffffffffff19166bffffffffffffffffffffffff1916815260200190815260200160002060070160016101000a81548160ff021916908360028111156110c157fe5b021790555034600080856bffffffffffffffffffffffff19166bffffffffffffffffffffffff19168152602001908152602001600020600601819055507f8f52c15a8dda5af727677001f0ceb13df57f42198fd5cdde86a06aee80333a4b600080856bffffffffffffffffffffffff19166bffffffffffffffffffffffff1916815260200190815260200160002060000154858585333460405180878152602001868152602001856bffffffffffffffffffffffff19166bffffffffffffffffffffffff191681526020018473ffffffffffffffffffffffffffffffffffffffff1673ffffffffffffffffffffffffffffffffffffffff1681526020018373ffffffffffffffffffffffffffffffffffffffff1673ffffffffffffffffffffffffffffffffffffffff168152602001828152602001965050505050505060405180910390a150505050565b60006020528060005260406000206000915090508060000154908060010154908060020160009054906101000a90046c0100000000000000000000000002908060030154908060040160009054906101000a900473ffffffffffffffffffffffffffffffffffffffff16908060050160009054906101000a900473ffffffffffffffffffffffffffffffffffffffff16908060060154908060070160009054906101000a900460ff16908060070160019054906101000a900460ff169050895600a165627a7a723058206ce1a6daf701e4ce07d98f55e84fd6a3f7fbc974b74f191ef18dbe3ce6f2a3480029",
  "source": "pragma solidity ^0.4.15;\n\ncontract AtomicSwap {\n\n    enum State { Empty, Initiator, Participant }\n\n    struct Swap {\n        uint initTimestamp;\n        uint refundTime;\n        bytes20 hashedSecret;\n        bytes32 secret;\n        address initiator;\n        address participant;\n        uint256 value;\n        bool emptied;\n        State state;\n    }\n\n    mapping(bytes20 => Swap) public swaps;\n    \n\tevent Refunded(uint _refundTime);\n    event Redeemed(uint _redeemTime);\n    event Participated(\n        address _initiator, \n        address _participator, \n        bytes20 _hashedSecret,\n        uint256 _value\n    );\n\tevent Initiated(\n\t\tuint _initTimestamp,\n    \tuint _refundTime,\n    \tbytes20 _hashedSecret,\n    \taddress _participant,\n    \taddress _initiator,\n\t\tuint256 _funds\n\t);\n\n\tfunction AtomicSwap() {}\n    \n\tmodifier isRefundable(bytes20 _hashedSecret) {\n\t    require(block.timestamp > swaps[_hashedSecret].initTimestamp + swaps[_hashedSecret].refundTime);\n\t    require(swaps[_hashedSecret].emptied == false);\n\t    _;\n\t}\n\t\n\tmodifier isRedeemable(bytes20 _hashedSecret, bytes32 _secret) {\n\t    require(ripemd160(_secret) == _hashedSecret);\n\t\trequire(block.timestamp < swaps[_hashedSecret].initTimestamp + swaps[_hashedSecret].refundTime);\n\t    require(swaps[_hashedSecret].emptied == false);\n\t    _;\n\t}\n\t\n\tmodifier isInitiator(bytes20 _hashedSecret) {\n\t    require(msg.sender == swaps[_hashedSecret].initiator);\n\t    _;\n\t}\n\t\n\tmodifier isNotInitiated(bytes20 _hashedSecret) {\n\t    require(swaps[_hashedSecret].state == State.Empty);\n\t    _;\n\t}\n\n\tfunction initiate (uint _refundTime,bytes20 _hashedSecret,address _participant) \n\t    payable \n\t    isNotInitiated(_hashedSecret)    \n\t{\n\t    swaps[_hashedSecret].refundTime = _refundTime;\n\t    swaps[_hashedSecret].initTimestamp = block.timestamp;\n\t    swaps[_hashedSecret].hashedSecret = _hashedSecret;\n\t    swaps[_hashedSecret].participant = _participant;\n\t    swaps[_hashedSecret].initiator = msg.sender;\n        swaps[_hashedSecret].state = State.Initiator;\n        swaps[_hashedSecret].value = msg.value;\n\t\tInitiated(\n\t\t\tswaps[_hashedSecret].initTimestamp,\n    \t\t_refundTime,\n    \t\t_hashedSecret,\n    \t\t_participant,\n    \t\tmsg.sender,\n\t\t \tmsg.value\n\t\t);\n\t}\n\n    function participate(uint _refundTime, bytes20 _hashedSecret,address _initiator) \n        payable \n        isNotInitiated(_hashedSecret)\n    {\n        swaps[_hashedSecret].refundTime = _refundTime;\n\t    swaps[_hashedSecret].initTimestamp = block.timestamp;\n        swaps[_hashedSecret].participant = msg.sender;\n        swaps[_hashedSecret].initiator = _initiator;\n        swaps[_hashedSecret].value = msg.value;\n        swaps[_hashedSecret].hashedSecret = _hashedSecret;\n        swaps[_hashedSecret].state = State.Participant;\n        Participated(_initiator,msg.sender,_hashedSecret,msg.value);\n    }\n\t\n\tfunction redeem(bytes32 _secret, bytes20 _hashedSecret) \n\t    isRedeemable(_hashedSecret, _secret)\n\t{\n        if(swaps[_hashedSecret].state == State.Participant){\n            swaps[_hashedSecret].initiator.transfer(swaps[_hashedSecret].value);\n        }\n        if(swaps[_hashedSecret].state == State.Initiator){\n            swaps[_hashedSecret].participant.transfer(swaps[_hashedSecret].value);\n        }\n        swaps[_hashedSecret].emptied = true;\n        Redeemed(block.timestamp);\n        swaps[_hashedSecret].secret = _secret;\n\t}\n\n\tfunction refund(bytes20 _hashedSecret)\n\t    isRefundable(_hashedSecret) \n\t{\n\t    if(swaps[_hashedSecret].state == State.Participant){\n            swaps[_hashedSecret].participant.transfer(swaps[_hashedSecret].value);\n        }\n        if(swaps[_hashedSecret].state == State.Initiator){\n            swaps[_hashedSecret].initiator.transfer(swaps[_hashedSecret].value);\n        }\n        swaps[_hashedSecret].emptied = true;\n\t    Refunded(block.timestamp);\n\t}\n}",
  "sourcePath": "/Users/math/Desktop/ethatomicswap/contracts/AtomicSwap.sol",
  "compiler": {
    "name": "solc",
    "version": "0.4.24+commit.e67f0147.Emscripten.clang"
  },
  "schemaVersion": "2.0.1",
  "updatedAt": "2018-11-02T23:24:31.161Z"
}